S01700004763634170706C69636174696F6E312E737265635B
S113000012C02CC02BC02AC029C028C027C026C0BB
S113001025C024C023C022C021C020C01FC01EC0D0
S11300201DC01CC01BC011241FBECFE5D4E0DEBF21
S1130030CDBF10E0A0E6B0E0E2ECF1E002C0059034
S11300400D92AA36B107D9F720E0AAE6B0E001C0C4
S11300501D92AB36B207E1F765D0B1C0D1CF9C0198
S113006040E050E060E878E381E090E086D0DA0197
S1130070C9014097A109B109B695A79597958795A8
S11300809C018F3F910561F058F080E08F5F3695B9
S11300902795369527952F3F310509F0B8F701C00C
S11300A080E091B19370892B81B920B9089584E4DB
S11300B086BF60ED77E080E090E0D1DF089506B67A
S11300C007FEFDCF089584EA86BFF9DF81B1887FFA
S11300D0883019F081E080936A00089583B984E838
S11300E086BFEDDF81B1887F803419F084E080938E
S11300F06A00089584EC86BFE2DF81B1887F803591
S113010019F084E080936A0083B1089583B984E888
S113011086BFD5DF81B1887F883219F084E080936F
S11301206A000895A09AA89A8FEF81BB82BBBFDFB3
S11301302FEF89E698E1215080409040E1F700C01C
S11301400000C1DF80EDCADF81E0E0DFBCDF81EDCC
S1130150C5DFD0DFC82FCEDFCF70EC2FF0E0E05A40
S1130160FF4F808182BB2FEF84E39CE021508040CD
S11301709040E1F700C00000E4CFA1E21A2EAA1BD0
S1130180BB1BFD010DC0AA1FBB1FEE1FFF1FA21743
S1130190B307E407F50720F0A21BB30BE40BF50B40
S11301A0661F771F881F991F1A9469F760957095C9
S11301B0809590959B01AC01BD01CF010895F89401
S10501C0FFCF6B
S10D01C23F065B4F666D7D077F6703
S9030000FC
